{
  "contractName": "Voting",
  "abi": [
    {
      "inputs": [],
      "stateMutability": "nonpayable",
      "type": "constructor"
    },
    {
      "anonymous": false,
      "inputs": [
        {
          "indexed": true,
          "internalType": "address",
          "name": "previousOwner",
          "type": "address"
        },
        {
          "indexed": true,
          "internalType": "address",
          "name": "newOwner",
          "type": "address"
        }
      ],
      "name": "OwnershipTransferred",
      "type": "event"
    },
    {
      "anonymous": false,
      "inputs": [
        {
          "indexed": false,
          "internalType": "uint256",
          "name": "proposalId",
          "type": "uint256"
        }
      ],
      "name": "ProposalRegistered",
      "type": "event"
    },
    {
      "anonymous": false,
      "inputs": [],
      "name": "ProposalsRegistrationEnded",
      "type": "event"
    },
    {
      "anonymous": false,
      "inputs": [],
      "name": "ProposalsRegistrationStarted",
      "type": "event"
    },
    {
      "anonymous": false,
      "inputs": [
        {
          "indexed": false,
          "internalType": "address",
          "name": "voter",
          "type": "address"
        },
        {
          "indexed": false,
          "internalType": "uint256",
          "name": "proposalId",
          "type": "uint256"
        }
      ],
      "name": "Voted",
      "type": "event"
    },
    {
      "anonymous": false,
      "inputs": [
        {
          "indexed": false,
          "internalType": "address",
          "name": "voterAddress",
          "type": "address"
        }
      ],
      "name": "VoterRegistered",
      "type": "event"
    },
    {
      "anonymous": false,
      "inputs": [],
      "name": "VotesTallied",
      "type": "event"
    },
    {
      "anonymous": false,
      "inputs": [],
      "name": "VotingSessionEnded",
      "type": "event"
    },
    {
      "anonymous": false,
      "inputs": [],
      "name": "VotingSessionStarted",
      "type": "event"
    },
    {
      "anonymous": false,
      "inputs": [
        {
          "indexed": false,
          "internalType": "enum Voting.WorkflowStatus",
          "name": "previousStatus",
          "type": "uint8"
        },
        {
          "indexed": false,
          "internalType": "enum Voting.WorkflowStatus",
          "name": "newStatus",
          "type": "uint8"
        }
      ],
      "name": "WorkflowStatusChange",
      "type": "event"
    },
    {
      "inputs": [],
      "name": "owner",
      "outputs": [
        {
          "internalType": "address",
          "name": "",
          "type": "address"
        }
      ],
      "stateMutability": "view",
      "type": "function",
      "constant": true
    },
    {
      "inputs": [
        {
          "internalType": "uint256",
          "name": "",
          "type": "uint256"
        }
      ],
      "name": "proposals",
      "outputs": [
        {
          "internalType": "string",
          "name": "description",
          "type": "string"
        },
        {
          "internalType": "uint256",
          "name": "voteCount",
          "type": "uint256"
        }
      ],
      "stateMutability": "view",
      "type": "function",
      "constant": true
    },
    {
      "inputs": [],
      "name": "renounceOwnership",
      "outputs": [],
      "stateMutability": "nonpayable",
      "type": "function"
    },
    {
      "inputs": [
        {
          "internalType": "address",
          "name": "newOwner",
          "type": "address"
        }
      ],
      "name": "transferOwnership",
      "outputs": [],
      "stateMutability": "nonpayable",
      "type": "function"
    },
    {
      "inputs": [
        {
          "internalType": "address",
          "name": "",
          "type": "address"
        }
      ],
      "name": "voters",
      "outputs": [
        {
          "internalType": "bool",
          "name": "isRegistered",
          "type": "bool"
        },
        {
          "internalType": "bool",
          "name": "hasVoted",
          "type": "bool"
        },
        {
          "internalType": "uint256",
          "name": "votedProposalId",
          "type": "uint256"
        }
      ],
      "stateMutability": "view",
      "type": "function",
      "constant": true
    },
    {
      "inputs": [],
      "name": "winningProposalId",
      "outputs": [
        {
          "internalType": "uint256",
          "name": "",
          "type": "uint256"
        }
      ],
      "stateMutability": "view",
      "type": "function",
      "constant": true
    },
    {
      "inputs": [],
      "name": "workflowStatus",
      "outputs": [
        {
          "internalType": "enum Voting.WorkflowStatus",
          "name": "",
          "type": "uint8"
        }
      ],
      "stateMutability": "view",
      "type": "function",
      "constant": true
    },
    {
      "inputs": [
        {
          "internalType": "address",
          "name": "voterAddress",
          "type": "address"
        }
      ],
      "name": "addVoter",
      "outputs": [],
      "stateMutability": "nonpayable",
      "type": "function"
    },
    {
      "inputs": [],
      "name": "startProposalsRegistration",
      "outputs": [],
      "stateMutability": "nonpayable",
      "type": "function"
    },
    {
      "inputs": [],
      "name": "endProposalsRegistration",
      "outputs": [],
      "stateMutability": "nonpayable",
      "type": "function"
    },
    {
      "inputs": [],
      "name": "startVotingSession",
      "outputs": [],
      "stateMutability": "nonpayable",
      "type": "function"
    },
    {
      "inputs": [],
      "name": "endVotingSession",
      "outputs": [],
      "stateMutability": "nonpayable",
      "type": "function"
    },
    {
      "inputs": [],
      "name": "tally",
      "outputs": [],
      "stateMutability": "nonpayable",
      "type": "function"
    },
    {
      "inputs": [
        {
          "internalType": "string",
          "name": "description",
          "type": "string"
        }
      ],
      "name": "addProposal",
      "outputs": [],
      "stateMutability": "nonpayable",
      "type": "function"
    },
    {
      "inputs": [
        {
          "internalType": "uint256",
          "name": "proposalId",
          "type": "uint256"
        }
      ],
      "name": "vote",
      "outputs": [],
      "stateMutability": "nonpayable",
      "type": "function"
    },
    {
      "inputs": [],
      "name": "getProposalCount",
      "outputs": [
        {
          "internalType": "uint256",
          "name": "",
          "type": "uint256"
        }
      ],
      "stateMutability": "view",
      "type": "function",
      "constant": true
    },
    {
      "inputs": [],
      "name": "getVoterCount",
      "outputs": [
        {
          "internalType": "uint256",
          "name": "",
          "type": "uint256"
        }
      ],
      "stateMutability": "view",
      "type": "function",
      "constant": true
    },
    {
      "inputs": [],
      "name": "getWinningProposal",
      "outputs": [
        {
          "internalType": "string",
          "name": "",
          "type": "string"
        }
      ],
      "stateMutability": "view",
      "type": "function",
      "constant": true
    }
  ],
  "bytecode": "0x60806040526000600560006101000a81548160ff021916908360058111156200002457fe5b02179055503480156200003657600080fd5b506000620000496200017260201b60201c565b9050806000806101000a81548173ffffffffffffffffffffffffffffffffffffffff021916908373ffffffffffffffffffffffffffffffffffffffff1602179055508073ffffffffffffffffffffffffffffffffffffffff16600073ffffffffffffffffffffffffffffffffffffffff167f8be0079c531659141344cd1fd0a4f28419497f9722a3daafe3b4186f6b6457e060405160405180910390a350600260405180604001604052806040518060600160405280602a81526020016200233e602a913981526020016000815250908060018154018082558091505060019003906000526020600020906002020160009091909190915060008201518160000190805190602001906200015f9291906200017a565b5060208201518160010155505062000229565b600033905090565b828054600181600116156101000203166002900490600052602060002090601f016020900481019282601f10620001bd57805160ff1916838001178555620001ee565b82800160010185558215620001ee579182015b82811115620001ed578251825591602001919060010190620001d0565b5b509050620001fd919062000201565b5090565b6200022691905b808211156200022257600081600090555060010162000208565b5090565b90565b61210580620002396000396000f3fe608060405234801561001057600080fd5b50600436106101165760003560e01c8063a3ec138d116100a2578063c64963c511610071578063c64963c51461047d578063e09b8c791461049b578063ee74c678146104a5578063f2fde38b146104af578063f4ab9adf146104f357610116565b8063a3ec138d14610364578063a5134620146103d2578063a7bfab1614610455578063c08cc02d1461045f57610116565b8063410673e5116100e9578063410673e5146102d05780636c297445146102da578063715018a6146102e45780638da5cb5b146102ee578063a1edffa21461033857610116565b80630121b93f1461011b578063013cf08b1461014957806311174a29146101f75780632fdae3c514610215575b600080fd5b6101476004803603602081101561013157600080fd5b8101908080359060200190929190505050610537565b005b6101756004803603602081101561015f57600080fd5b81019080803590602001909291905050506108ef565b6040518080602001838152602001828103825284818151815260200191508051906020019080838360005b838110156101bb5780820151818401526020810190506101a0565b50505050905090810190601f1680156101e85780820380516001836020036101000a031916815260200191505b50935050505060405180910390f35b6101ff6109b8565b6040518082815260200191505060405180910390f35b6102ce6004803603602081101561022b57600080fd5b810190808035906020019064010000000081111561024857600080fd5b82018360208201111561025a57600080fd5b8035906020019184600183028401116401000000008311171561027c57600080fd5b91908080601f016020809104026020016040519081016040528093929190818152602001838380828437600081840152601f19601f8201169050808301925050505050505091929192905050506109c2565b005b6102d8610c0f565b005b6102e2610dfe565b005b6102ec610f7d565b005b6102f6611105565b604051808273ffffffffffffffffffffffffffffffffffffffff1673ffffffffffffffffffffffffffffffffffffffff16815260200191505060405180910390f35b61034061112e565b6040518082600581111561035057fe5b60ff16815260200191505060405180910390f35b6103a66004803603602081101561037a57600080fd5b81019080803573ffffffffffffffffffffffffffffffffffffffff169060200190929190505050611141565b604051808415151515815260200183151515158152602001828152602001935050505060405180910390f35b6103da611185565b6040518080602001828103825283818151815260200191508051906020019080838360005b8381101561041a5780820151818401526020810190506103ff565b50505050905090810190601f1680156104475780820380516001836020036101000a031916815260200191505b509250505060405180910390f35b61045d611320565b005b61046761149f565b6040518082815260200191505060405180910390f35b6104856114af565b6040518082815260200191505060405180910390f35b6104a36114b5565b005b6104ad611634565b005b6104f1600480360360208110156104c557600080fd5b81019080803573ffffffffffffffffffffffffffffffffffffffff1690602001909291905050506117b3565b005b6105356004803603602081101561050957600080fd5b81019080803573ffffffffffffffffffffffffffffffffffffffff1690602001909291905050506119c0565b005b60011515600460003373ffffffffffffffffffffffffffffffffffffffff1673ffffffffffffffffffffffffffffffffffffffff16815260200190815260200160002060000160009054906101000a900460ff161515146105e3576040517f08c379a00000000000000000000000000000000000000000000000000000000081526004018080602001828103825260228152602001806120676022913960400191505060405180910390fd5b600360058111156105f057fe5b600560009054906101000a900460ff16600581111561060b57fe5b14610661576040517f08c379a000000000000000000000000000000000000000000000000000000000815260040180806020018281038252603c815260200180611e4a603c913960400191505060405180910390fd5b60001515600460003373ffffffffffffffffffffffffffffffffffffffff1673ffffffffffffffffffffffffffffffffffffffff16815260200190815260200160002060000160019054906101000a900460ff1615151461072a576040517f08c379a00000000000000000000000000000000000000000000000000000000081526004018080602001828103825260168152602001807f596f752063616e206f6e6c7920766f7465206f6e63650000000000000000000081525060200191505060405180910390fd5b6000811415801561073f575060028054905081105b6107b1576040517f08c379a000000000000000000000000000000000000000000000000000000000815260040180806020018281038252601b8152602001807f546869732070726f706f73616c20646f65736e2774206578697374000000000081525060200191505060405180910390fd5b600281815481106107be57fe5b9060005260206000209060020201600101600081548092919060010191905055506001600460003373ffffffffffffffffffffffffffffffffffffffff1673ffffffffffffffffffffffffffffffffffffffff16815260200190815260200160002060000160016101000a81548160ff02191690831515021790555080600460003373ffffffffffffffffffffffffffffffffffffffff1673ffffffffffffffffffffffffffffffffffffffff168152602001908152602001600020600101819055507f4d99b957a2bc29a30ebd96a7be8e68fe50a3c701db28a91436490b7d53870ca43382604051808373ffffffffffffffffffffffffffffffffffffffff1673ffffffffffffffffffffffffffffffffffffffff1681526020018281526020019250505060405180910390a150565b600281815481106108fc57fe5b9060005260206000209060020201600091509050806000018054600181600116156101000203166002900480601f0160208091040260200160405190810160405280929190818152602001828054600181600116156101000203166002900480156109a85780601f1061097d576101008083540402835291602001916109a8565b820191906000526020600020905b81548152906001019060200180831161098b57829003601f168201915b5050505050908060010154905082565b6000600354905090565b60011515600460003373ffffffffffffffffffffffffffffffffffffffff1673ffffffffffffffffffffffffffffffffffffffff16815260200190815260200160002060000160009054906101000a900460ff16151514610a6e576040517f08c379a00000000000000000000000000000000000000000000000000000000081526004018080602001828103825260228152602001806120676022913960400191505060405180910390fd5b6000815111610ae5576040517f08c379a00000000000000000000000000000000000000000000000000000000081526004018080602001828103825260208152602001807f50726f706f73616c206d75737420686176652061206465736372697074696f6e81525060200191505060405180910390fd5b60016005811115610af257fe5b600560009054906101000a900460ff166005811115610b0d57fe5b14610b63576040517f08c379a0000000000000000000000000000000000000000000000000000000008152600401808060200182810382526044815260200180611f606044913960600191505060405180910390fd5b60026040518060400160405280838152602001600081525090806001815401808255809150506001900390600052602060002090600202016000909190919091506000820151816000019080519060200190610bc0929190611d71565b506020820151816001015550507f92e393e9b54e2f801d3ea4beb0c5e71a21cc34a5d34b77d0fb8a3aa1650dc18f6001600280549050036040518082815260200191505060405180910390a150565b610c17611cd9565b73ffffffffffffffffffffffffffffffffffffffff166000809054906101000a900473ffffffffffffffffffffffffffffffffffffffff1673ffffffffffffffffffffffffffffffffffffffff1614610cd8576040517f08c379a00000000000000000000000000000000000000000000000000000000081526004018080602001828103825260208152602001807f4f776e61626c653a2063616c6c6572206973206e6f7420746865206f776e657281525060200191505060405180910390fd5b60046005811115610ce557fe5b600560009054906101000a900460ff166005811115610d0057fe5b14610d56576040517f08c379a000000000000000000000000000000000000000000000000000000000815260040180806020018281038252605b815260200180611fe6605b913960600191505060405180910390fd5b6000600190505b600280549050811015610dc557600260015481548110610d7957fe5b90600052602060002090600202016001015460028281548110610d9857fe5b9060005260206000209060020201600101541115610db857806001819055505b8080600101915050610d5d565b50610dd06005611ce1565b7f0e5e95ff8725ab3e7a4b6b59998a4c344c2aa8d1485f5e60cb7f337768e6134760405160405180910390a1565b610e06611cd9565b73ffffffffffffffffffffffffffffffffffffffff166000809054906101000a900473ffffffffffffffffffffffffffffffffffffffff1673ffffffffffffffffffffffffffffffffffffffff1614610ec7576040517f08c379a00000000000000000000000000000000000000000000000000000000081526004018080602001828103825260208152602001807f4f776e61626c653a2063616c6c6572206973206e6f7420746865206f776e657281525060200191505060405180910390fd5b60016005811115610ed457fe5b600560009054906101000a900460ff166005811115610eef57fe5b14610f45576040517f08c379a00000000000000000000000000000000000000000000000000000000081526004018080602001828103825260478152602001806120896047913960600191505060405180910390fd5b610f4f6002611ce1565b7f240cb87b2e4df4c318e72bd714d45a9cad60249e883ff56b1fffd83a4595a8fa60405160405180910390a1565b610f85611cd9565b73ffffffffffffffffffffffffffffffffffffffff166000809054906101000a900473ffffffffffffffffffffffffffffffffffffffff1673ffffffffffffffffffffffffffffffffffffffff1614611046576040517f08c379a00000000000000000000000000000000000000000000000000000000081526004018080602001828103825260208152602001807f4f776e61626c653a2063616c6c6572206973206e6f7420746865206f776e657281525060200191505060405180910390fd5b600073ffffffffffffffffffffffffffffffffffffffff166000809054906101000a900473ffffffffffffffffffffffffffffffffffffffff1673ffffffffffffffffffffffffffffffffffffffff167f8be0079c531659141344cd1fd0a4f28419497f9722a3daafe3b4186f6b6457e060405160405180910390a360008060006101000a81548173ffffffffffffffffffffffffffffffffffffffff021916908373ffffffffffffffffffffffffffffffffffffffff160217905550565b60008060009054906101000a900473ffffffffffffffffffffffffffffffffffffffff16905090565b600560009054906101000a900460ff1681565b60046020528060005260406000206000915090508060000160009054906101000a900460ff16908060000160019054906101000a900460ff16908060010154905083565b606060058081111561119357fe5b600560009054906101000a900460ff1660058111156111ae57fe5b14611204576040517f08c379a0000000000000000000000000000000000000000000000000000000008152600401808060200182810382526033815260200180611e176033913960400191505060405180910390fd5b600160028054905011611262576040517f08c379a0000000000000000000000000000000000000000000000000000000008152600401808060200182810382526027815260200180611f396027913960400191505060405180910390fd5b60026001548154811061127157fe5b90600052602060002090600202016000018054600181600116156101000203166002900480601f0160208091040260200160405190810160405280929190818152602001828054600181600116156101000203166002900480156113165780601f106112eb57610100808354040283529160200191611316565b820191906000526020600020905b8154815290600101906020018083116112f957829003601f168201915b5050505050905090565b611328611cd9565b73ffffffffffffffffffffffffffffffffffffffff166000809054906101000a900473ffffffffffffffffffffffffffffffffffffffff1673ffffffffffffffffffffffffffffffffffffffff16146113e9576040517f08c379a00000000000000000000000000000000000000000000000000000000081526004018080602001828103825260208152602001807f4f776e61626c653a2063616c6c6572206973206e6f7420746865206f776e657281525060200191505060405180910390fd5b600360058111156113f657fe5b600560009054906101000a900460ff16600581111561141157fe5b14611467576040517f08c379a000000000000000000000000000000000000000000000000000000000815260040180806020018281038252603c815260200180611e4a603c913960400191505060405180910390fd5b6114716004611ce1565b7fc379d349a6301baf50fb2f98d829f4ae10b1cdb7c66f4e4d8117302df7b8cd4c60405160405180910390a1565b6000600160028054905003905090565b60015481565b6114bd611cd9565b73ffffffffffffffffffffffffffffffffffffffff166000809054906101000a900473ffffffffffffffffffffffffffffffffffffffff1673ffffffffffffffffffffffffffffffffffffffff161461157e576040517f08c379a00000000000000000000000000000000000000000000000000000000081526004018080602001828103825260208152602001807f4f776e61626c653a2063616c6c6572206973206e6f7420746865206f776e657281525060200191505060405180910390fd5b6000600581111561158b57fe5b600560009054906101000a900460ff1660058111156115a657fe5b146115fc576040517f08c379a0000000000000000000000000000000000000000000000000000000008152600401808060200182810382526042815260200180611fa46042913960600191505060405180910390fd5b6116066001611ce1565b7f344c25562921d075a298d34b6dd1fd00d36ff293974539dfd4a8c625d9f0064c60405160405180910390a1565b61163c611cd9565b73ffffffffffffffffffffffffffffffffffffffff166000809054906101000a900473ffffffffffffffffffffffffffffffffffffffff1673ffffffffffffffffffffffffffffffffffffffff16146116fd576040517f08c379a00000000000000000000000000000000000000000000000000000000081526004018080602001828103825260208152602001807f4f776e61626c653a2063616c6c6572206973206e6f7420746865206f776e657281525060200191505060405180910390fd5b6002600581111561170a57fe5b600560009054906101000a900460ff16600581111561172557fe5b1461177b576040517f08c379a000000000000000000000000000000000000000000000000000000000815260040180806020018281038252604b815260200180611eac604b913960600191505060405180910390fd5b6117856003611ce1565b7f1b8e19a458c1bcd88553332c518cc5c4e2d5793e712ee766d4f1c14f672ef1f560405160405180910390a1565b6117bb611cd9565b73ffffffffffffffffffffffffffffffffffffffff166000809054906101000a900473ffffffffffffffffffffffffffffffffffffffff1673ffffffffffffffffffffffffffffffffffffffff161461187c576040517f08c379a00000000000000000000000000000000000000000000000000000000081526004018080602001828103825260208152602001807f4f776e61626c653a2063616c6c6572206973206e6f7420746865206f776e657281525060200191505060405180910390fd5b600073ffffffffffffffffffffffffffffffffffffffff168173ffffffffffffffffffffffffffffffffffffffff161415611902576040517f08c379a0000000000000000000000000000000000000000000000000000000008152600401808060200182810382526026815260200180611e866026913960400191505060405180910390fd5b8073ffffffffffffffffffffffffffffffffffffffff166000809054906101000a900473ffffffffffffffffffffffffffffffffffffffff1673ffffffffffffffffffffffffffffffffffffffff167f8be0079c531659141344cd1fd0a4f28419497f9722a3daafe3b4186f6b6457e060405160405180910390a3806000806101000a81548173ffffffffffffffffffffffffffffffffffffffff021916908373ffffffffffffffffffffffffffffffffffffffff16021790555050565b6119c8611cd9565b73ffffffffffffffffffffffffffffffffffffffff166000809054906101000a900473ffffffffffffffffffffffffffffffffffffffff1673ffffffffffffffffffffffffffffffffffffffff1614611a89576040517f08c379a00000000000000000000000000000000000000000000000000000000081526004018080602001828103825260208152602001807f4f776e61626c653a2063616c6c6572206973206e6f7420746865206f776e657281525060200191505060405180910390fd5b60006005811115611a9657fe5b600560009054906101000a900460ff166005811115611ab157fe5b14611b07576040517f08c379a0000000000000000000000000000000000000000000000000000000008152600401808060200182810382526042815260200180611ef76042913960600191505060405180910390fd5b60001515600460008373ffffffffffffffffffffffffffffffffffffffff1673ffffffffffffffffffffffffffffffffffffffff16815260200190815260200160002060000160009054906101000a900460ff16151514611bb3576040517f08c379a00000000000000000000000000000000000000000000000000000000081526004018080602001828103825260268152602001806120416026913960400191505060405180910390fd5b60405180606001604052806001151581526020016000151581526020016000815250600460008373ffffffffffffffffffffffffffffffffffffffff1673ffffffffffffffffffffffffffffffffffffffff16815260200190815260200160002060008201518160000160006101000a81548160ff02191690831515021790555060208201518160000160016101000a81548160ff021916908315150217905550604082015181600101559050506003600081548092919060010191905055507fb6be2187d059cc2a55fe29e0e503b566e1e0f8c8780096e185429350acffd3dd81604051808273ffffffffffffffffffffffffffffffffffffffff1673ffffffffffffffffffffffffffffffffffffffff16815260200191505060405180910390a150565b600033905090565b7f0a97a4ee45751e2abf3e4fc8946939630b11b371ea8ae39ccdc3056e98f5cc3f600560009054906101000a900460ff168260405180836005811115611d2357fe5b60ff168152602001826005811115611d3757fe5b60ff1681526020019250505060405180910390a180600560006101000a81548160ff02191690836005811115611d6957fe5b021790555050565b828054600181600116156101000203166002900490600052602060002090601f016020900481019282601f10611db257805160ff1916838001178555611de0565b82800160010185558215611de0579182015b82811115611ddf578251825591602001919060010190611dc4565b5b509050611ded9190611df1565b5090565b611e1391905b80821115611e0f576000816000905550600101611df7565b5090565b9056fe546869732066756e6374696f6e2063616e206f6e6c792062652063616c6c656420696620766f74652069732074616c6c696564546869732066756e6374696f6e2063616e206f6e6c792062652063616c6c656420696620766f74696e672073657373696f6e206973206f70656e65644f776e61626c653a206e6577206f776e657220697320746865207a65726f2061646472657373546869732066756e6374696f6e2063616e206f6e6c792062652063616c6c6564207768656e2070726f706f73616c73207265676973746572696e67206973207374696c6c206f70656e6564546869732066756e6374696f6e2063616e27742062652063616c6c6564206265636175736520766f74657273207265676973746572696e6720697320636c6f73656454686572652077657265206e6f2070726f706f73616c20647572696e67207468697320766f7465546869732066756e6374696f6e2063616e206f6e6c792062652063616c6c65642069662070726f706f73616c7320726567697374726174696f6e206973206f70656e6564546869732066756e6374696f6e2063616e206f6e6c792062652063616c6c6564207768656e20766f74657273207265676973746572696e67206973206f70656e6564546869732066756e6374696f6e2063616e206f6e6c792062652063616c6c656420696620766f74652073657373696f6e20697320636c6f73656420616e6420766f746520686173206e6f74206265656e207461696c6564207965745468697320766f7465722068617320616c7265616479206265656e20726567697374657265644f6e6c7920766f7465722063616e2063616c6c20746869732066756e6374696f6e2e546869732066756e6374696f6e2063616e27742062652063616c6c656420626563617573652070726f706f73616c207265676973746572696e672069736e2774206f70656e6564a2646970667358221220fa7fb6de3840bc7d3549971bf370d0ed930bbd5834816ab02d4ec86398bdded064736f6c634300060b00334e6f2077696e6e696e672070726f706f73616c2c20706c65617365207761697420666f722074616c6c79",
  "immutableReferences": {},
  "source": "// SPDX-License-Identifier: MIT\npragma solidity 0.6.11;\n\nimport \"@openzeppelin/contracts/access/Ownable.sol\";\n\n/**\n * @author Fabien Hebert\n * @notice This contract allow a vote handled by a administrator. Voter are able to add one proposal and vote for one\n * @dev This contract is based on Ownable contract from OpenZepellin\n */\ncontract Voting is Ownable {\n    enum WorkflowStatus {\n        RegisteringVoters,\n        ProposalsRegistrationStarted,\n        ProposalsRegistrationEnded,\n        VotingSessionStarted,\n        VotingSessionEnded,\n        VotesTallied\n    }\n\n    struct Voter {\n        bool isRegistered;\n        bool hasVoted;\n        uint256 votedProposalId;\n    }\n\n    struct Proposal {\n        string description;\n        uint256 voteCount;\n    }\n\n    // Events list\n    event VoterRegistered(address voterAddress);\n    event ProposalsRegistrationStarted();\n    event ProposalsRegistrationEnded();\n    event ProposalRegistered(uint256 proposalId);\n    event VotingSessionStarted();\n    event VotingSessionEnded();\n    event Voted(address voter, uint256 proposalId);\n    event VotesTallied();\n    event WorkflowStatusChange(\n        WorkflowStatus previousStatus,\n        WorkflowStatus newStatus\n    );\n\n    uint256 public winningProposalId;\n    Proposal[] public proposals;\n    uint256 votersCount;\n    mapping(address => Voter) public voters;\n    WorkflowStatus public workflowStatus = WorkflowStatus.RegisteringVoters;\n\n    modifier onlyVoter {\n        require(\n            voters[msg.sender].isRegistered == true,\n            \"Only voter can call this function.\"\n        );\n        _;\n    }\n\n    constructor() public {\n        // We push a \"fake proposal\", allowing winningProposalId to be equal to 0\n        proposals.push(\n            Proposal(\"No winning proposal, please wait for tally\", 0)\n        );\n    }\n\n    /**\n     * @dev to be called when vote status is change, an event will me emitted\n     */\n    function changeWorkflowStatus(WorkflowStatus newStatus) internal {\n        emit WorkflowStatusChange(workflowStatus, newStatus);\n        workflowStatus = newStatus;\n    }\n\n    /**\n     * @notice Add a voter using his address during RegisteringVoters step\n     * Requirements:\n     * - sender must be the owner of the contract\n     */\n    function addVoter(address voterAddress) external onlyOwner {\n        require(\n            workflowStatus == WorkflowStatus.RegisteringVoters,\n            \"This function can't be called because voters registering is closed\"\n        );\n        require(\n            voters[voterAddress].isRegistered == false,\n            \"This voter has already been registered\"\n        );\n        voters[voterAddress] = Voter(true, false, 0);\n        votersCount++;\n        emit VoterRegistered(voterAddress);\n    }\n\n    /**\n     * @notice Start proposal registration step\n     * Requirements:\n     * - sender must be the owner of the contract\n     */\n    function startProposalsRegistration() external onlyOwner {\n        require(\n            workflowStatus == WorkflowStatus.RegisteringVoters,\n            \"This function can only be called when voters registering is opened\"\n        );\n        changeWorkflowStatus(WorkflowStatus.ProposalsRegistrationStarted);\n        emit ProposalsRegistrationStarted();\n    }\n\n    /**\n     * @notice End proposal registration step\n     * Requirements:\n     * - sender must be the owner of the contract\n     */\n    function endProposalsRegistration() external onlyOwner {\n        require(\n            workflowStatus == WorkflowStatus.ProposalsRegistrationStarted,\n            \"This function can't be called because proposal registering isn't opened\"\n        );\n        changeWorkflowStatus(WorkflowStatus.ProposalsRegistrationEnded);\n        emit ProposalsRegistrationEnded();\n    }\n\n    /**\n     * @notice Start voting  step\n     * Requirements:\n     * - sender must be the owner of the contract\n     */\n    function startVotingSession() external onlyOwner {\n        require(\n            workflowStatus == WorkflowStatus.ProposalsRegistrationEnded,\n            \"This function can only be called when proposals registering is still opened\"\n        );\n        changeWorkflowStatus(WorkflowStatus.VotingSessionStarted);\n        emit VotingSessionStarted();\n    }\n\n    /**\n     * @notice End voting step\n     * Requirements:\n     * - sender must be the owner of the contract\n     */\n    function endVotingSession() external onlyOwner {\n        require(\n            workflowStatus == WorkflowStatus.VotingSessionStarted,\n            \"This function can only be called if voting session is opened\"\n        );\n        changeWorkflowStatus(WorkflowStatus.VotingSessionEnded);\n        emit VotingSessionEnded();\n    }\n\n    function tally() external onlyOwner {\n        require(\n            workflowStatus == WorkflowStatus.VotingSessionEnded,\n            \"This function can only be called if vote session is closed and vote has not been tailed yet\"\n        );\n        for (uint256 i = 1; i < proposals.length; i++) {\n            if (\n                proposals[i].voteCount > proposals[winningProposalId].voteCount\n            ) {\n                winningProposalId = i;\n            }\n        }\n        changeWorkflowStatus(WorkflowStatus.VotesTallied);\n        emit VotesTallied();\n    }\n\n    function addProposal(string memory description) external onlyVoter {\n        require(\n            bytes(description).length > 0,\n            \"Proposal must have a description\"\n        );\n\n        require(\n            workflowStatus == WorkflowStatus.ProposalsRegistrationStarted,\n            \"This function can only be called if proposals registration is opened\"\n        );\n        proposals.push(Proposal(description, 0));\n        emit ProposalRegistered(proposals.length - 1);\n    }\n\n    function vote(uint256 proposalId) external onlyVoter {\n        require(\n            workflowStatus == WorkflowStatus.VotingSessionStarted,\n            \"This function can only be called if voting session is opened\"\n        );\n\n        require(voters[msg.sender].hasVoted == false, \"You can only vote once\");\n        require(\n            proposalId != 0 && proposalId < proposals.length,\n            \"This proposal doesn't exist\"\n        );\n        proposals[proposalId].voteCount++;\n        voters[msg.sender].hasVoted = true;\n        voters[msg.sender].votedProposalId = proposalId;\n        emit Voted(msg.sender, proposalId);\n    }\n\n    function getProposalCount() external view returns (uint256) {\n        return proposals.length - 1;\n    }\n\n    function getVoterCount() external view returns (uint256) {\n        return votersCount;\n    }\n\n    function getWinningProposal() external view returns (string memory) {\n        require(\n            workflowStatus == WorkflowStatus.VotesTallied,\n            \"This function can only be called if vote is tallied\"\n        );\n        require(\n            proposals.length > 1,\n            \"There were no proposal during this vote\"\n        );\n        return proposals[winningProposalId].description;\n    }\n}\n",
  "sourcePath": "/Users/fabienhebert/dev/blockchain/defi2/contracts/Voting.sol",
  "compiler": {
    "name": "solc",
    "version": "0.6.11+commit.5ef660b1.Emscripten.clang"
  },
  "schemaVersion": "3.3.2",
  "updatedAt": "2020-12-13T17:14:25.493Z",
  "networkType": "ethereum",
  "devdoc": {
    "author": "Fabien Hebert",
    "details": "This contract is based on Ownable contract from OpenZepellin",
    "kind": "dev",
    "methods": {
      "owner()": {
        "details": "Returns the address of the current owner."
      },
      "renounceOwnership()": {
        "details": "Leaves the contract without owner. It will not be possible to call `onlyOwner` functions anymore. Can only be called by the current owner. NOTE: Renouncing ownership will leave the contract without an owner, thereby removing any functionality that is only available to the owner."
      },
      "transferOwnership(address)": {
        "details": "Transfers ownership of the contract to a new account (`newOwner`). Can only be called by the current owner."
      }
    },
    "version": 1
  },
  "userdoc": {
    "kind": "user",
    "methods": {
      "addVoter(address)": {
        "notice": "Add a voter using his address during RegisteringVoters step Requirements: - sender must be the owner of the contract"
      },
      "endProposalsRegistration()": {
        "notice": "End proposal registration step Requirements: - sender must be the owner of the contract"
      },
      "endVotingSession()": {
        "notice": "End voting step Requirements: - sender must be the owner of the contract"
      },
      "startProposalsRegistration()": {
        "notice": "Start proposal registration step Requirements: - sender must be the owner of the contract"
      },
      "startVotingSession()": {
        "notice": "Start voting  step Requirements: - sender must be the owner of the contract"
      }
    },
    "notice": "This contract allow a vote handled by a administrator. Voter are able to add one proposal and vote for one",
    "version": 1
  }
}