{
  "contractName": "Voting",
  "abi": [
    {
      "inputs": [],
      "stateMutability": "nonpayable",
      "type": "constructor"
    },
    {
      "anonymous": false,
      "inputs": [
        {
          "indexed": true,
          "internalType": "address",
          "name": "previousOwner",
          "type": "address"
        },
        {
          "indexed": true,
          "internalType": "address",
          "name": "newOwner",
          "type": "address"
        }
      ],
      "name": "OwnershipTransferred",
      "type": "event"
    },
    {
      "anonymous": false,
      "inputs": [
        {
          "indexed": false,
          "internalType": "uint256",
          "name": "proposalId",
          "type": "uint256"
        }
      ],
      "name": "ProposalRegistered",
      "type": "event"
    },
    {
      "anonymous": false,
      "inputs": [],
      "name": "ProposalsRegistrationEnded",
      "type": "event"
    },
    {
      "anonymous": false,
      "inputs": [],
      "name": "ProposalsRegistrationStarted",
      "type": "event"
    },
    {
      "anonymous": false,
      "inputs": [
        {
          "indexed": false,
          "internalType": "address",
          "name": "voter",
          "type": "address"
        },
        {
          "indexed": false,
          "internalType": "uint256",
          "name": "proposalId",
          "type": "uint256"
        },
        {
          "indexed": false,
          "internalType": "uint256",
          "name": "totalVoteCount",
          "type": "uint256"
        }
      ],
      "name": "Voted",
      "type": "event"
    },
    {
      "anonymous": false,
      "inputs": [
        {
          "indexed": false,
          "internalType": "address",
          "name": "voterAddress",
          "type": "address"
        }
      ],
      "name": "VoterRegistered",
      "type": "event"
    },
    {
      "anonymous": false,
      "inputs": [],
      "name": "VotesTallied",
      "type": "event"
    },
    {
      "anonymous": false,
      "inputs": [],
      "name": "VotingSessionEnded",
      "type": "event"
    },
    {
      "anonymous": false,
      "inputs": [],
      "name": "VotingSessionStarted",
      "type": "event"
    },
    {
      "anonymous": false,
      "inputs": [
        {
          "indexed": false,
          "internalType": "enum Voting.WorkflowStatus",
          "name": "previousStatus",
          "type": "uint8"
        },
        {
          "indexed": false,
          "internalType": "enum Voting.WorkflowStatus",
          "name": "newStatus",
          "type": "uint8"
        }
      ],
      "name": "WorkflowStatusChange",
      "type": "event"
    },
    {
      "inputs": [],
      "name": "owner",
      "outputs": [
        {
          "internalType": "address",
          "name": "",
          "type": "address"
        }
      ],
      "stateMutability": "view",
      "type": "function",
      "constant": true
    },
    {
      "inputs": [
        {
          "internalType": "uint256",
          "name": "",
          "type": "uint256"
        }
      ],
      "name": "proposals",
      "outputs": [
        {
          "internalType": "string",
          "name": "description",
          "type": "string"
        },
        {
          "internalType": "uint256",
          "name": "voteCount",
          "type": "uint256"
        }
      ],
      "stateMutability": "view",
      "type": "function",
      "constant": true
    },
    {
      "inputs": [],
      "name": "renounceOwnership",
      "outputs": [],
      "stateMutability": "nonpayable",
      "type": "function"
    },
    {
      "inputs": [
        {
          "internalType": "address",
          "name": "newOwner",
          "type": "address"
        }
      ],
      "name": "transferOwnership",
      "outputs": [],
      "stateMutability": "nonpayable",
      "type": "function"
    },
    {
      "inputs": [
        {
          "internalType": "address",
          "name": "",
          "type": "address"
        }
      ],
      "name": "voters",
      "outputs": [
        {
          "internalType": "bool",
          "name": "isRegistered",
          "type": "bool"
        },
        {
          "internalType": "bool",
          "name": "hasVoted",
          "type": "bool"
        },
        {
          "internalType": "uint256",
          "name": "votedProposalId",
          "type": "uint256"
        }
      ],
      "stateMutability": "view",
      "type": "function",
      "constant": true
    },
    {
      "inputs": [],
      "name": "winningProposalId",
      "outputs": [
        {
          "internalType": "uint256",
          "name": "",
          "type": "uint256"
        }
      ],
      "stateMutability": "view",
      "type": "function",
      "constant": true
    },
    {
      "inputs": [],
      "name": "workflowStatus",
      "outputs": [
        {
          "internalType": "enum Voting.WorkflowStatus",
          "name": "",
          "type": "uint8"
        }
      ],
      "stateMutability": "view",
      "type": "function",
      "constant": true
    },
    {
      "inputs": [
        {
          "internalType": "address",
          "name": "voterAddress",
          "type": "address"
        }
      ],
      "name": "addVoter",
      "outputs": [],
      "stateMutability": "nonpayable",
      "type": "function"
    },
    {
      "inputs": [],
      "name": "startProposalsRegistration",
      "outputs": [],
      "stateMutability": "nonpayable",
      "type": "function"
    },
    {
      "inputs": [],
      "name": "endProposalsRegistration",
      "outputs": [],
      "stateMutability": "nonpayable",
      "type": "function"
    },
    {
      "inputs": [],
      "name": "startVotingSession",
      "outputs": [],
      "stateMutability": "nonpayable",
      "type": "function"
    },
    {
      "inputs": [],
      "name": "endVotingSession",
      "outputs": [],
      "stateMutability": "nonpayable",
      "type": "function"
    },
    {
      "inputs": [],
      "name": "tally",
      "outputs": [],
      "stateMutability": "nonpayable",
      "type": "function"
    },
    {
      "inputs": [
        {
          "internalType": "string",
          "name": "description",
          "type": "string"
        }
      ],
      "name": "addProposal",
      "outputs": [],
      "stateMutability": "nonpayable",
      "type": "function"
    },
    {
      "inputs": [
        {
          "internalType": "uint256",
          "name": "proposalId",
          "type": "uint256"
        }
      ],
      "name": "vote",
      "outputs": [],
      "stateMutability": "nonpayable",
      "type": "function"
    },
    {
      "inputs": [],
      "name": "getWinningProposal",
      "outputs": [
        {
          "internalType": "string",
          "name": "",
          "type": "string"
        }
      ],
      "stateMutability": "view",
      "type": "function",
      "constant": true
    },
    {
      "inputs": [],
      "name": "getProposalCount",
      "outputs": [
        {
          "internalType": "uint256",
          "name": "",
          "type": "uint256"
        }
      ],
      "stateMutability": "view",
      "type": "function",
      "constant": true
    }
  ],
  "bytecode": "0x60806040526000600460006101000a81548160ff021916908360058111156200002457fe5b02179055503480156200003657600080fd5b506000620000496200017260201b60201c565b9050806000806101000a81548173ffffffffffffffffffffffffffffffffffffffff021916908373ffffffffffffffffffffffffffffffffffffffff1602179055508073ffffffffffffffffffffffffffffffffffffffff16600073ffffffffffffffffffffffffffffffffffffffff167f8be0079c531659141344cd1fd0a4f28419497f9722a3daafe3b4186f6b6457e060405160405180910390a350600260405180604001604052806040518060600160405280602a8152602001620022fa602a913981526020016000815250908060018154018082558091505060019003906000526020600020906002020160009091909190915060008201518160000190805190602001906200015f9291906200017a565b5060208201518160010155505062000229565b600033905090565b828054600181600116156101000203166002900490600052602060002090601f016020900481019282601f10620001bd57805160ff1916838001178555620001ee565b82800160010185558215620001ee579182015b82811115620001ed578251825591602001919060010190620001d0565b5b509050620001fd919062000201565b5090565b6200022691905b808211156200022257600081600090555060010162000208565b5090565b90565b6120c180620002396000396000f3fe608060405234801561001057600080fd5b506004361061010b5760003560e01c8063a3ec138d116100a2578063c64963c511610071578063c64963c514610454578063e09b8c7914610472578063ee74c6781461047c578063f2fde38b14610486578063f4ab9adf146104ca5761010b565b8063a3ec138d1461033b578063a5134620146103a9578063a7bfab161461042c578063c08cc02d146104365761010b565b80636c297445116100de5780636c297445146102b1578063715018a6146102bb5780638da5cb5b146102c5578063a1edffa21461030f5761010b565b80630121b93f14610110578063013cf08b1461013e5780632fdae3c5146101ec578063410673e5146102a7575b600080fd5b61013c6004803603602081101561012657600080fd5b810190808035906020019092919050505061050e565b005b61016a6004803603602081101561015457600080fd5b81019080803590602001909291905050506108ec565b6040518080602001838152602001828103825284818151815260200191508051906020019080838360005b838110156101b0578082015181840152602081019050610195565b50505050905090810190601f1680156101dd5780820380516001836020036101000a031916815260200191505b50935050505060405180910390f35b6102a56004803603602081101561020257600080fd5b810190808035906020019064010000000081111561021f57600080fd5b82018360208201111561023157600080fd5b8035906020019184600183028401116401000000008311171561025357600080fd5b91908080601f016020809104026020016040519081016040528093929190818152602001838380828437600081840152601f19601f8201169050808301925050505050505091929192905050506109b5565b005b6102af610c02565b005b6102b9610df1565b005b6102c3610f70565b005b6102cd6110f8565b604051808273ffffffffffffffffffffffffffffffffffffffff1673ffffffffffffffffffffffffffffffffffffffff16815260200191505060405180910390f35b610317611121565b6040518082600581111561032757fe5b60ff16815260200191505060405180910390f35b61037d6004803603602081101561035157600080fd5b81019080803573ffffffffffffffffffffffffffffffffffffffff169060200190929190505050611134565b604051808415151515815260200183151515158152602001828152602001935050505060405180910390f35b6103b1611178565b6040518080602001828103825283818151815260200191508051906020019080838360005b838110156103f15780820151818401526020810190506103d6565b50505050905090810190601f16801561041e5780820380516001836020036101000a031916815260200191505b509250505060405180910390f35b610434611313565b005b61043e611492565b6040518082815260200191505060405180910390f35b61045c6114a2565b6040518082815260200191505060405180910390f35b61047a6114a8565b005b610484611627565b005b6104c86004803603602081101561049c57600080fd5b81019080803573ffffffffffffffffffffffffffffffffffffffff1690602001909291905050506117a6565b005b61050c600480360360208110156104e057600080fd5b81019080803573ffffffffffffffffffffffffffffffffffffffff1690602001909291905050506119b3565b005b60011515600360003373ffffffffffffffffffffffffffffffffffffffff1673ffffffffffffffffffffffffffffffffffffffff16815260200190815260200160002060000160009054906101000a900460ff161515146105ba576040517f08c379a00000000000000000000000000000000000000000000000000000000081526004018080602001828103825260228152602001806120236022913960400191505060405180910390fd5b600360058111156105c757fe5b600460009054906101000a900460ff1660058111156105e257fe5b14610638576040517f08c379a000000000000000000000000000000000000000000000000000000000815260040180806020018281038252603c815260200180611e48603c913960400191505060405180910390fd5b60001515600360003373ffffffffffffffffffffffffffffffffffffffff1673ffffffffffffffffffffffffffffffffffffffff16815260200190815260200160002060000160019054906101000a900460ff16151514610701576040517f08c379a00000000000000000000000000000000000000000000000000000000081526004018080602001828103825260168152602001807f596f752063616e206f6e6c7920766f7465206f6e63650000000000000000000081525060200191505060405180910390fd5b60008114158015610716575060028054905081105b610788576040517f08c379a000000000000000000000000000000000000000000000000000000000815260040180806020018281038252601b8152602001807f546869732070726f706f73616c20646f65736e2774206578697374000000000081525060200191505060405180910390fd5b6002818154811061079557fe5b9060005260206000209060020201600101600081548092919060010191905055506001600360003373ffffffffffffffffffffffffffffffffffffffff1673ffffffffffffffffffffffffffffffffffffffff16815260200190815260200160002060000160016101000a81548160ff02191690831515021790555080600360003373ffffffffffffffffffffffffffffffffffffffff1673ffffffffffffffffffffffffffffffffffffffff168152602001908152602001600020600101819055507fea66f58e474bc09f580000e81f31b334d171db387d0c6098ba47bd897741679b33826002848154811061088857fe5b906000526020600020906002020160010154604051808473ffffffffffffffffffffffffffffffffffffffff1673ffffffffffffffffffffffffffffffffffffffff168152602001838152602001828152602001935050505060405180910390a150565b600281815481106108f957fe5b9060005260206000209060020201600091509050806000018054600181600116156101000203166002900480601f0160208091040260200160405190810160405280929190818152602001828054600181600116156101000203166002900480156109a55780601f1061097a576101008083540402835291602001916109a5565b820191906000526020600020905b81548152906001019060200180831161098857829003601f168201915b5050505050908060010154905082565b60011515600360003373ffffffffffffffffffffffffffffffffffffffff1673ffffffffffffffffffffffffffffffffffffffff16815260200190815260200160002060000160009054906101000a900460ff16151514610a61576040517f08c379a00000000000000000000000000000000000000000000000000000000081526004018080602001828103825260228152602001806120236022913960400191505060405180910390fd5b6000815111610ad8576040517f08c379a00000000000000000000000000000000000000000000000000000000081526004018080602001828103825260208152602001807f50726f706f73616c206d75737420686176652061206465736372697074696f6e81525060200191505060405180910390fd5b60016005811115610ae557fe5b600460009054906101000a900460ff166005811115610b0057fe5b14610b56576040517f08c379a0000000000000000000000000000000000000000000000000000000008152600401808060200182810382526044815260200180611f1c6044913960600191505060405180910390fd5b60026040518060400160405280838152602001600081525090806001815401808255809150506001900390600052602060002090600202016000909190919091506000820151816000019080519060200190610bb3929190611d6f565b506020820151816001015550507f92e393e9b54e2f801d3ea4beb0c5e71a21cc34a5d34b77d0fb8a3aa1650dc18f6001600280549050036040518082815260200191505060405180910390a150565b610c0a611cd7565b73ffffffffffffffffffffffffffffffffffffffff166000809054906101000a900473ffffffffffffffffffffffffffffffffffffffff1673ffffffffffffffffffffffffffffffffffffffff1614610ccb576040517f08c379a00000000000000000000000000000000000000000000000000000000081526004018080602001828103825260208152602001807f4f776e61626c653a2063616c6c6572206973206e6f7420746865206f776e657281525060200191505060405180910390fd5b60046005811115610cd857fe5b600460009054906101000a900460ff166005811115610cf357fe5b14610d49576040517f08c379a000000000000000000000000000000000000000000000000000000000815260040180806020018281038252605b815260200180611fa2605b913960600191505060405180910390fd5b6000600190505b600280549050811015610db857600260015481548110610d6c57fe5b90600052602060002090600202016001015460028281548110610d8b57fe5b9060005260206000209060020201600101541115610dab57806001819055505b8080600101915050610d50565b50610dc36005611cdf565b7f0e5e95ff8725ab3e7a4b6b59998a4c344c2aa8d1485f5e60cb7f337768e6134760405160405180910390a1565b610df9611cd7565b73ffffffffffffffffffffffffffffffffffffffff166000809054906101000a900473ffffffffffffffffffffffffffffffffffffffff1673ffffffffffffffffffffffffffffffffffffffff1614610eba576040517f08c379a00000000000000000000000000000000000000000000000000000000081526004018080602001828103825260208152602001807f4f776e61626c653a2063616c6c6572206973206e6f7420746865206f776e657281525060200191505060405180910390fd5b60016005811115610ec757fe5b600460009054906101000a900460ff166005811115610ee257fe5b14610f38576040517f08c379a00000000000000000000000000000000000000000000000000000000081526004018080602001828103825260478152602001806120456047913960600191505060405180910390fd5b610f426002611cdf565b7f240cb87b2e4df4c318e72bd714d45a9cad60249e883ff56b1fffd83a4595a8fa60405160405180910390a1565b610f78611cd7565b73ffffffffffffffffffffffffffffffffffffffff166000809054906101000a900473ffffffffffffffffffffffffffffffffffffffff1673ffffffffffffffffffffffffffffffffffffffff1614611039576040517f08c379a00000000000000000000000000000000000000000000000000000000081526004018080602001828103825260208152602001807f4f776e61626c653a2063616c6c6572206973206e6f7420746865206f776e657281525060200191505060405180910390fd5b600073ffffffffffffffffffffffffffffffffffffffff166000809054906101000a900473ffffffffffffffffffffffffffffffffffffffff1673ffffffffffffffffffffffffffffffffffffffff167f8be0079c531659141344cd1fd0a4f28419497f9722a3daafe3b4186f6b6457e060405160405180910390a360008060006101000a81548173ffffffffffffffffffffffffffffffffffffffff021916908373ffffffffffffffffffffffffffffffffffffffff160217905550565b60008060009054906101000a900473ffffffffffffffffffffffffffffffffffffffff16905090565b600460009054906101000a900460ff1681565b60036020528060005260406000206000915090508060000160009054906101000a900460ff16908060000160019054906101000a900460ff16908060010154905083565b606060058081111561118657fe5b600460009054906101000a900460ff1660058111156111a157fe5b146111f7576040517f08c379a0000000000000000000000000000000000000000000000000000000008152600401808060200182810382526033815260200180611e156033913960400191505060405180910390fd5b600160028054905011611255576040517f08c379a0000000000000000000000000000000000000000000000000000000008152600401808060200182810382526027815260200180611ef56027913960400191505060405180910390fd5b60026001548154811061126457fe5b90600052602060002090600202016000018054600181600116156101000203166002900480601f0160208091040260200160405190810160405280929190818152602001828054600181600116156101000203166002900480156113095780601f106112de57610100808354040283529160200191611309565b820191906000526020600020905b8154815290600101906020018083116112ec57829003601f168201915b5050505050905090565b61131b611cd7565b73ffffffffffffffffffffffffffffffffffffffff166000809054906101000a900473ffffffffffffffffffffffffffffffffffffffff1673ffffffffffffffffffffffffffffffffffffffff16146113dc576040517f08c379a00000000000000000000000000000000000000000000000000000000081526004018080602001828103825260208152602001807f4f776e61626c653a2063616c6c6572206973206e6f7420746865206f776e657281525060200191505060405180910390fd5b600360058111156113e957fe5b600460009054906101000a900460ff16600581111561140457fe5b1461145a576040517f08c379a000000000000000000000000000000000000000000000000000000000815260040180806020018281038252603c815260200180611e48603c913960400191505060405180910390fd5b6114646004611cdf565b7fc379d349a6301baf50fb2f98d829f4ae10b1cdb7c66f4e4d8117302df7b8cd4c60405160405180910390a1565b6000600160028054905003905090565b60015481565b6114b0611cd7565b73ffffffffffffffffffffffffffffffffffffffff166000809054906101000a900473ffffffffffffffffffffffffffffffffffffffff1673ffffffffffffffffffffffffffffffffffffffff1614611571576040517f08c379a00000000000000000000000000000000000000000000000000000000081526004018080602001828103825260208152602001807f4f776e61626c653a2063616c6c6572206973206e6f7420746865206f776e657281525060200191505060405180910390fd5b6000600581111561157e57fe5b600460009054906101000a900460ff16600581111561159957fe5b146115ef576040517f08c379a0000000000000000000000000000000000000000000000000000000008152600401808060200182810382526042815260200180611f606042913960600191505060405180910390fd5b6115f96001611cdf565b7f344c25562921d075a298d34b6dd1fd00d36ff293974539dfd4a8c625d9f0064c60405160405180910390a1565b61162f611cd7565b73ffffffffffffffffffffffffffffffffffffffff166000809054906101000a900473ffffffffffffffffffffffffffffffffffffffff1673ffffffffffffffffffffffffffffffffffffffff16146116f0576040517f08c379a00000000000000000000000000000000000000000000000000000000081526004018080602001828103825260208152602001807f4f776e61626c653a2063616c6c6572206973206e6f7420746865206f776e657281525060200191505060405180910390fd5b600260058111156116fd57fe5b600460009054906101000a900460ff16600581111561171857fe5b1461176e576040517f08c379a000000000000000000000000000000000000000000000000000000000815260040180806020018281038252604b815260200180611eaa604b913960600191505060405180910390fd5b6117786003611cdf565b7f1b8e19a458c1bcd88553332c518cc5c4e2d5793e712ee766d4f1c14f672ef1f560405160405180910390a1565b6117ae611cd7565b73ffffffffffffffffffffffffffffffffffffffff166000809054906101000a900473ffffffffffffffffffffffffffffffffffffffff1673ffffffffffffffffffffffffffffffffffffffff161461186f576040517f08c379a00000000000000000000000000000000000000000000000000000000081526004018080602001828103825260208152602001807f4f776e61626c653a2063616c6c6572206973206e6f7420746865206f776e657281525060200191505060405180910390fd5b600073ffffffffffffffffffffffffffffffffffffffff168173ffffffffffffffffffffffffffffffffffffffff1614156118f5576040517f08c379a0000000000000000000000000000000000000000000000000000000008152600401808060200182810382526026815260200180611e846026913960400191505060405180910390fd5b8073ffffffffffffffffffffffffffffffffffffffff166000809054906101000a900473ffffffffffffffffffffffffffffffffffffffff1673ffffffffffffffffffffffffffffffffffffffff167f8be0079c531659141344cd1fd0a4f28419497f9722a3daafe3b4186f6b6457e060405160405180910390a3806000806101000a81548173ffffffffffffffffffffffffffffffffffffffff021916908373ffffffffffffffffffffffffffffffffffffffff16021790555050565b6119bb611cd7565b73ffffffffffffffffffffffffffffffffffffffff166000809054906101000a900473ffffffffffffffffffffffffffffffffffffffff1673ffffffffffffffffffffffffffffffffffffffff1614611a7c576040517f08c379a00000000000000000000000000000000000000000000000000000000081526004018080602001828103825260208152602001807f4f776e61626c653a2063616c6c6572206973206e6f7420746865206f776e657281525060200191505060405180910390fd5b60006005811115611a8957fe5b600460009054906101000a900460ff166005811115611aa457fe5b14611b17576040517f08c379a000000000000000000000000000000000000000000000000000000000815260040180806020018281038252601c8152602001807f566f74657220726567697374726174696f6e20697320636c6f7365640000000081525060200191505060405180910390fd5b60001515600360008373ffffffffffffffffffffffffffffffffffffffff1673ffffffffffffffffffffffffffffffffffffffff16815260200190815260200160002060000160009054906101000a900460ff16151514611bc3576040517f08c379a0000000000000000000000000000000000000000000000000000000008152600401808060200182810382526026815260200180611ffd6026913960400191505060405180910390fd5b60405180606001604052806001151581526020016000151581526020016000815250600360008373ffffffffffffffffffffffffffffffffffffffff1673ffffffffffffffffffffffffffffffffffffffff16815260200190815260200160002060008201518160000160006101000a81548160ff02191690831515021790555060208201518160000160016101000a81548160ff021916908315150217905550604082015181600101559050507fb6be2187d059cc2a55fe29e0e503b566e1e0f8c8780096e185429350acffd3dd81604051808273ffffffffffffffffffffffffffffffffffffffff1673ffffffffffffffffffffffffffffffffffffffff16815260200191505060405180910390a150565b600033905090565b7f0a97a4ee45751e2abf3e4fc8946939630b11b371ea8ae39ccdc3056e98f5cc3f600460009054906101000a900460ff168260405180836005811115611d2157fe5b60ff168152602001826005811115611d3557fe5b60ff1681526020019250505060405180910390a180600460006101000a81548160ff02191690836005811115611d6757fe5b021790555050565b828054600181600116156101000203166002900490600052602060002090601f016020900481019282601f10611db057805160ff1916838001178555611dde565b82800160010185558215611dde579182015b82811115611ddd578251825591602001919060010190611dc2565b5b509050611deb9190611def565b5090565b611e1191905b80821115611e0d576000816000905550600101611df5565b5090565b9056fe546869732066756e6374696f6e2063616e206f6e6c792062652063616c6c656420696620766f74652069732074616c6c696564546869732066756e6374696f6e2063616e206f6e6c792062652063616c6c656420696620766f74696e672073657373696f6e206973206f70656e65644f776e61626c653a206e6577206f776e657220697320746865207a65726f2061646472657373546869732066756e6374696f6e2063616e206f6e6c792062652063616c6c6564207768656e2070726f706f73616c73207265676973746572696e67206973207374696c6c206f70656e656454686572652077657265206e6f2070726f706f73616c20647572696e67207468697320766f7465546869732066756e6374696f6e2063616e206f6e6c792062652063616c6c65642069662070726f706f73616c7320726567697374726174696f6e206973206f70656e6564546869732066756e6374696f6e2063616e206f6e6c792062652063616c6c6564207768656e20766f74657273207265676973746572696e67206973206f70656e6564546869732066756e6374696f6e2063616e206f6e6c792062652063616c6c656420696620766f74652073657373696f6e20697320636c6f73656420616e6420766f746520686173206e6f74206265656e207461696c6564207965745468697320766f7465722068617320616c7265616479206265656e20726567697374657265644f6e6c7920766f7465722063616e2063616c6c20746869732066756e6374696f6e2e546869732066756e6374696f6e2063616e27742062652063616c6c656420626563617573652070726f706f73616c207265676973746572696e672069736e2774206f70656e6564a2646970667358221220016db552ecd7c9f67d02f5a99de46078ad635edd57a0b985a48da3690902bad364736f6c634300060b00334e6f2077696e6e696e672070726f706f73616c2c20706c65617365207761697420666f722074616c6c79",
  "immutableReferences": {},
  "source": "// SPDX-License-Identifier: MIT\npragma solidity 0.6.11;\n\nimport '@openzeppelin/contracts/access/Ownable.sol';\n\n/**\n * @author Fabien Hebert\n * @notice This contract allow a vote handled by a administrator. Voter are able to add proposals and vote for one of them\n * @dev This contract is based on Ownable contract from OpenZepellin\n */\ncontract Voting is Ownable {\n    enum WorkflowStatus {\n        RegisteringVoters,\n        ProposalsRegistrationStarted,\n        ProposalsRegistrationEnded,\n        VotingSessionStarted,\n        VotingSessionEnded,\n        VotesTallied\n    }\n\n    struct Voter {\n        bool isRegistered;\n        bool hasVoted;\n        uint256 votedProposalId;\n    }\n\n    struct Proposal {\n        string description;\n        uint256 voteCount;\n    }\n\n    // Events list\n    event VoterRegistered(address voterAddress);\n    event ProposalRegistered(uint256 proposalId);\n    event Voted(address voter, uint256 proposalId, uint256 totalVoteCount);\n    event ProposalsRegistrationStarted();\n    event ProposalsRegistrationEnded();\n    event VotingSessionStarted();\n    event VotingSessionEnded();\n    event VotesTallied();\n    event WorkflowStatusChange(WorkflowStatus previousStatus, WorkflowStatus newStatus);\n\n    uint256 public winningProposalId;\n    Proposal[] public proposals;\n    mapping(address => Voter) public voters;\n    WorkflowStatus public workflowStatus = WorkflowStatus.RegisteringVoters;\n\n    modifier onlyVoter {\n        require(voters[msg.sender].isRegistered == true, 'Only voter can call this function.');\n        _;\n    }\n\n    constructor() public {\n        // We push a \"fake proposal\", allowing winningProposalId to be equal to 0\n        proposals.push(Proposal('No winning proposal, please wait for tally', 0));\n    }\n\n    function changeWorkflowStatus(WorkflowStatus newStatus) internal {\n        emit WorkflowStatusChange(workflowStatus, newStatus);\n        workflowStatus = newStatus;\n    }\n\n    /**\n     * @notice Add a voter using his address during RegisteringVoters step\n     * Requirements:\n     * - sender must be the owner of the contract\n     */\n    function addVoter(address voterAddress) external onlyOwner {\n        require(workflowStatus == WorkflowStatus.RegisteringVoters, 'Voter registration is closed');\n        require(\n            voters[voterAddress].isRegistered == false,\n            'This voter has already been registered'\n        );\n        voters[voterAddress] = Voter(true, false, 0);\n        emit VoterRegistered(voterAddress);\n    }\n\n    // Vote update\n    function startProposalsRegistration() external onlyOwner {\n        require(\n            workflowStatus == WorkflowStatus.RegisteringVoters,\n            'This function can only be called when voters registering is opened'\n        );\n        changeWorkflowStatus(WorkflowStatus.ProposalsRegistrationStarted);\n        emit ProposalsRegistrationStarted();\n    }\n\n    function endProposalsRegistration() external onlyOwner {\n        require(\n            workflowStatus == WorkflowStatus.ProposalsRegistrationStarted,\n            \"This function can't be called because proposal registering isn't opened\"\n        );\n        changeWorkflowStatus(WorkflowStatus.ProposalsRegistrationEnded);\n        emit ProposalsRegistrationEnded();\n    }\n\n    function startVotingSession() external onlyOwner {\n        require(\n            workflowStatus == WorkflowStatus.ProposalsRegistrationEnded,\n            'This function can only be called when proposals registering is still opened'\n        );\n        changeWorkflowStatus(WorkflowStatus.VotingSessionStarted);\n        emit VotingSessionStarted();\n    }\n\n    function endVotingSession() external onlyOwner {\n        require(\n            workflowStatus == WorkflowStatus.VotingSessionStarted,\n            'This function can only be called if voting session is opened'\n        );\n        changeWorkflowStatus(WorkflowStatus.VotingSessionEnded);\n        emit VotingSessionEnded();\n    }\n\n    function tally() external onlyOwner {\n        require(\n            workflowStatus == WorkflowStatus.VotingSessionEnded,\n            'This function can only be called if vote session is closed and vote has not been tailed yet'\n        );\n        for (uint256 i = 1; i < proposals.length; i++) {\n            if (proposals[i].voteCount > proposals[winningProposalId].voteCount) {\n                winningProposalId = i;\n            }\n        }\n        changeWorkflowStatus(WorkflowStatus.VotesTallied);\n        emit VotesTallied();\n    }\n\n    function addProposal(string memory description) external onlyVoter {\n        require(bytes(description).length > 0, 'Proposal must have a description');\n\n        require(\n            workflowStatus == WorkflowStatus.ProposalsRegistrationStarted,\n            'This function can only be called if proposals registration is opened'\n        );\n        proposals.push(Proposal(description, 0));\n        emit ProposalRegistered(proposals.length - 1);\n    }\n\n    function vote(uint256 proposalId) external onlyVoter {\n        require(\n            workflowStatus == WorkflowStatus.VotingSessionStarted,\n            'This function can only be called if voting session is opened'\n        );\n\n        require(voters[msg.sender].hasVoted == false, 'You can only vote once');\n        require(proposalId != 0 && proposalId < proposals.length, \"This proposal doesn't exist\");\n        proposals[proposalId].voteCount++;\n        voters[msg.sender].hasVoted = true;\n        voters[msg.sender].votedProposalId = proposalId;\n        emit Voted(msg.sender, proposalId, proposals[proposalId].voteCount);\n    }\n\n    function getWinningProposal() external view returns (string memory) {\n        require(\n            workflowStatus == WorkflowStatus.VotesTallied,\n            'This function can only be called if vote is tallied'\n        );\n        require(proposals.length > 1, 'There were no proposal during this vote');\n        return proposals[winningProposalId].description;\n    }\n\n    function getProposalCount() external view returns (uint256) {\n        return proposals.length - 1;\n    }\n}\n",
  "sourcePath": "/Users/fabienhebert/dev/blockchain/defi2/contracts/Voting.sol",
  "compiler": {
    "name": "solc",
    "version": "0.6.11+commit.5ef660b1.Emscripten.clang"
  },
  "schemaVersion": "3.3.2",
  "updatedAt": "2021-02-25T18:00:35.341Z",
  "networkType": "ethereum",
  "devdoc": {
    "author": "Fabien Hebert",
    "details": "This contract is based on Ownable contract from OpenZepellin",
    "kind": "dev",
    "methods": {
      "owner()": {
        "details": "Returns the address of the current owner."
      },
      "renounceOwnership()": {
        "details": "Leaves the contract without owner. It will not be possible to call `onlyOwner` functions anymore. Can only be called by the current owner. NOTE: Renouncing ownership will leave the contract without an owner, thereby removing any functionality that is only available to the owner."
      },
      "transferOwnership(address)": {
        "details": "Transfers ownership of the contract to a new account (`newOwner`). Can only be called by the current owner."
      }
    },
    "version": 1
  },
  "userdoc": {
    "kind": "user",
    "methods": {
      "addVoter(address)": {
        "notice": "Add a voter using his address during RegisteringVoters step Requirements: - sender must be the owner of the contract"
      }
    },
    "notice": "This contract allow a vote handled by a administrator. Voter are able to add proposals and vote for one of them",
    "version": 1
  }
}